{
  "contractName": "BoosterPack",
  "abi": [
    {
      "constant": true,
      "inputs": [],
      "name": "owner",
      "outputs": [
        {
          "name": "",
          "type": "address"
        }
      ],
      "payable": false,
      "stateMutability": "view",
      "type": "function"
    },
    {
      "inputs": [],
      "payable": false,
      "stateMutability": "nonpayable",
      "type": "constructor"
    },
    {
      "constant": false,
      "inputs": [
        {
          "name": "min",
          "type": "uint256"
        },
        {
          "name": "max",
          "type": "uint256"
        }
      ],
      "name": "rand",
      "outputs": [
        {
          "name": "",
          "type": "uint256"
        }
      ],
      "payable": false,
      "stateMutability": "nonpayable",
      "type": "function"
    },
    {
      "constant": false,
      "inputs": [
        {
          "name": "guaranteedRare",
          "type": "bool"
        }
      ],
      "name": "GenerateCard",
      "outputs": [
        {
          "name": "",
          "type": "bool"
        }
      ],
      "payable": false,
      "stateMutability": "nonpayable",
      "type": "function"
    }
  ],
  "bytecode": "0x608060405260006002553480156200001657600080fd5b50600080336000806101000a81548173ffffffffffffffffffffffffffffffffffffffff021916908373ffffffffffffffffffffffffffffffffffffffff16021790555060009150600090505b6005811215620000dd576004811480156200007c575081155b15620000a85760019150620000a16001620000e5640100000000026401000000009004565b50620000cf565b620000c36000620000e5640100000000026401000000009004565b15620000ce57600191505b5b808060010191505062000063565b50506200087b565b6000806000806000806200010b6001606462000822640100000000026401000000009004565b94506200012a6001606462000822640100000000026401000000009004565b935060198510156200014057600092506200016f565b60328510156200015457600192506200016e565b604b8510156200016857600292506200016d565b600392505b5b5b8615620003985760218410156200028e576000915081836000809054906101000a900473ffffffffffffffffffffffffffffffffffffffff16620001b26200086a565b808460ff1660ff1681526020018360ff1660ff1681526020018273ffffffffffffffffffffffffffffffffffffffff1673ffffffffffffffffffffffffffffffffffffffff1681526020019350505050604051809103906000f0801580156200021f573d6000803e3d6000fd5b50905060018190806001815401808255809150509060018203906000526020600020016000909192909190916101000a81548173ffffffffffffffffffffffffffffffffffffffff021916908373ffffffffffffffffffffffffffffffffffffffff1602179055505062000397565b6001915081836000809054906101000a900473ffffffffffffffffffffffffffffffffffffffff16620002c06200086a565b808460ff1660ff1681526020018360ff1660ff1681526020018273ffffffffffffffffffffffffffffffffffffffff1673ffffffffffffffffffffffffffffffffffffffff1681526020019350505050604051809103906000f0801580156200032d573d6000803e3d6000fd5b50905060018190806001815401808255809150509060018203906000526020600020016000909192909190916101000a81548173ffffffffffffffffffffffffffffffffffffffff021916908373ffffffffffffffffffffffffffffffffffffffff160217905550505b5b600a841015620004b0576000915081836000809054906101000a900473ffffffffffffffffffffffffffffffffffffffff16620003d46200086a565b808460ff1660ff1681526020018360ff1660ff1681526020018273ffffffffffffffffffffffffffffffffffffffff1673ffffffffffffffffffffffffffffffffffffffff1681526020019350505050604051809103906000f08015801562000441573d6000803e3d6000fd5b50905060018190806001815401808255809150509060018203906000526020600020016000909192909190916101000a81548173ffffffffffffffffffffffffffffffffffffffff021916908373ffffffffffffffffffffffffffffffffffffffff1602179055505062000813565b600a8410158015620004c25750601e84105b15620005d6576001915081836000809054906101000a900473ffffffffffffffffffffffffffffffffffffffff16620004fa6200086a565b808460ff1660ff1681526020018360ff1660ff1681526020018273ffffffffffffffffffffffffffffffffffffffff1673ffffffffffffffffffffffffffffffffffffffff1681526020019350505050604051809103906000f08015801562000567573d6000803e3d6000fd5b50905060018190806001815401808255809150509060018203906000526020600020016000909192909190916101000a81548173ffffffffffffffffffffffffffffffffffffffff021916908373ffffffffffffffffffffffffffffffffffffffff1602179055505062000812565b601e8410158015620005e85750603c84105b1562000700576002915081836000809054906101000a900473ffffffffffffffffffffffffffffffffffffffff16620006206200086a565b808460ff1660ff1681526020018360ff1660ff1681526020018273ffffffffffffffffffffffffffffffffffffffff1673ffffffffffffffffffffffffffffffffffffffff1681526020019350505050604051809103906000f0801580156200068d573d6000803e3d6000fd5b50905060018190806001815401808255809150509060018203906000526020600020016000909192909190916101000a81548173ffffffffffffffffffffffffffffffffffffffff021916908373ffffffffffffffffffffffffffffffffffffffff160217905550506000955062000818565b6003915081836000809054906101000a900473ffffffffffffffffffffffffffffffffffffffff16620007326200086a565b808460ff1660ff1681526020018360ff1660ff1681526020018273ffffffffffffffffffffffffffffffffffffffff1673ffffffffffffffffffffffffffffffffffffffff1681526020019350505050604051809103906000f0801580156200079f573d6000803e3d6000fd5b50905060018190806001815401808255809150509060018203906000526020600020016000909192909190916101000a81548173ffffffffffffffffffffffffffffffffffffffff021916908373ffffffffffffffffffffffffffffffffffffffff160217905550506000955062000818565b5b600195505b5050505050919050565b600060026000815480929190600101919050555082828401600254604051808281526020019150506040518091039020600190048115156200086057fe5b0603905092915050565b604051610102806200127183390190565b6109e6806200088b6000396000f300608060405260043610610057576000357c0100000000000000000000000000000000000000000000000000000000900463ffffffff16806305ad58521461005c5780638da5cb5b146100a357806395032b62146100fa575b600080fd5b34801561006857600080fd5b50610089600480360381019080803515159060200190929190505050610145565b604051808215151515815260200191505060405180910390f35b3480156100af57600080fd5b506100b861083c565b604051808273ffffffffffffffffffffffffffffffffffffffff1673ffffffffffffffffffffffffffffffffffffffff16815260200191505060405180910390f35b34801561010657600080fd5b5061012f6004803603810190808035906020019092919080359060200190929190505050610861565b6040518082815260200191505060405180910390f35b60008060008060008061015a60016064610861565b945061016860016064610861565b9350601985101561017c57600092506101a7565b603285101561018e57600192506101a6565b604b8510156101a057600292506101a5565b600392505b5b5b86156103c75760218410156102c0576000915081836000809054906101000a900473ffffffffffffffffffffffffffffffffffffffff166101e66108a8565b808460ff1660ff1681526020018360ff1660ff1681526020018273ffffffffffffffffffffffffffffffffffffffff1673ffffffffffffffffffffffffffffffffffffffff1681526020019350505050604051809103906000f080158015610252573d6000803e3d6000fd5b50905060018190806001815401808255809150509060018203906000526020600020016000909192909190916101000a81548173ffffffffffffffffffffffffffffffffffffffff021916908373ffffffffffffffffffffffffffffffffffffffff160217905550506103c6565b6001915081836000809054906101000a900473ffffffffffffffffffffffffffffffffffffffff166102f06108a8565b808460ff1660ff1681526020018360ff1660ff1681526020018273ffffffffffffffffffffffffffffffffffffffff1673ffffffffffffffffffffffffffffffffffffffff1681526020019350505050604051809103906000f08015801561035c573d6000803e3d6000fd5b50905060018190806001815401808255809150509060018203906000526020600020016000909192909190916101000a81548173ffffffffffffffffffffffffffffffffffffffff021916908373ffffffffffffffffffffffffffffffffffffffff160217905550505b5b600a8410156104da576000915081836000809054906101000a900473ffffffffffffffffffffffffffffffffffffffff166104006108a8565b808460ff1660ff1681526020018360ff1660ff1681526020018273ffffffffffffffffffffffffffffffffffffffff1673ffffffffffffffffffffffffffffffffffffffff1681526020019350505050604051809103906000f08015801561046c573d6000803e3d6000fd5b50905060018190806001815401808255809150509060018203906000526020600020016000909192909190916101000a81548173ffffffffffffffffffffffffffffffffffffffff021916908373ffffffffffffffffffffffffffffffffffffffff1602179055505061082d565b600a84101580156104eb5750601e84105b156105fa576001915081836000809054906101000a900473ffffffffffffffffffffffffffffffffffffffff166105206108a8565b808460ff1660ff1681526020018360ff1660ff1681526020018273ffffffffffffffffffffffffffffffffffffffff1673ffffffffffffffffffffffffffffffffffffffff1681526020019350505050604051809103906000f08015801561058c573d6000803e3d6000fd5b50905060018190806001815401808255809150509060018203906000526020600020016000909192909190916101000a81548173ffffffffffffffffffffffffffffffffffffffff021916908373ffffffffffffffffffffffffffffffffffffffff1602179055505061082c565b601e841015801561060b5750603c84105b1561071e576002915081836000809054906101000a900473ffffffffffffffffffffffffffffffffffffffff166106406108a8565b808460ff1660ff1681526020018360ff1660ff1681526020018273ffffffffffffffffffffffffffffffffffffffff1673ffffffffffffffffffffffffffffffffffffffff1681526020019350505050604051809103906000f0801580156106ac573d6000803e3d6000fd5b50905060018190806001815401808255809150509060018203906000526020600020016000909192909190916101000a81548173ffffffffffffffffffffffffffffffffffffffff021916908373ffffffffffffffffffffffffffffffffffffffff1602179055505060009550610832565b6003915081836000809054906101000a900473ffffffffffffffffffffffffffffffffffffffff1661074e6108a8565b808460ff1660ff1681526020018360ff1660ff1681526020018273ffffffffffffffffffffffffffffffffffffffff1673ffffffffffffffffffffffffffffffffffffffff1681526020019350505050604051809103906000f0801580156107ba573d6000803e3d6000fd5b50905060018190806001815401808255809150509060018203906000526020600020016000909192909190916101000a81548173ffffffffffffffffffffffffffffffffffffffff021916908373ffffffffffffffffffffffffffffffffffffffff1602179055505060009550610832565b5b600195505b5050505050919050565b6000809054906101000a900473ffffffffffffffffffffffffffffffffffffffff1681565b6000600260008154809291906001019190505550828284016002546040518082815260200191505060405180910390206001900481151561089e57fe5b0603905092915050565b604051610102806108b98339019056006080604052348015600f57600080fd5b50604051606080610102833981018060405281019080805190602001909291908051906020019092919080519060200190929190505050826000806101000a81548160ff021916908360ff16021790555081600060016101000a81548160ff021916908360ff16021790555080600060026101000a81548173ffffffffffffffffffffffffffffffffffffffff021916908373ffffffffffffffffffffffffffffffffffffffff1602179055505050506035806100cd6000396000f3006080604052600080fd00a165627a7a72305820815e3074c094fcb1d2f920f6362fa6c5303724987ee0e843aa24a771b46da24e0029a165627a7a72305820d5cd11db3673600074ddbf419523e43c68c997347ef3033f21e15b981d859ba700296080604052348015600f57600080fd5b50604051606080610102833981018060405281019080805190602001909291908051906020019092919080519060200190929190505050826000806101000a81548160ff021916908360ff16021790555081600060016101000a81548160ff021916908360ff16021790555080600060026101000a81548173ffffffffffffffffffffffffffffffffffffffff021916908373ffffffffffffffffffffffffffffffffffffffff1602179055505050506035806100cd6000396000f3006080604052600080fd00a165627a7a72305820815e3074c094fcb1d2f920f6362fa6c5303724987ee0e843aa24a771b46da24e0029",
  "source": "pragma solidity ^0.4.22;\n\n\ncontract Card {\n    \n    uint8 Rarity;\n    uint8 Class;\n    address Card_Owner;\n    \n    constructor(uint8 rarity, uint8 class, address owner) public {\n        Rarity = rarity;\n        Class = class;\n        Card_Owner = owner;\n    }\n}\n\ncontract BoosterPack {\n\n    address public owner;\n    Card[] cards;\n    \n    uint nonce = 0;\n    function rand(uint min, uint max) public returns (uint){\n        nonce++;\n        return uint(sha3(nonce))%(min+max)-min;\n        \n    }\n    \n    function GenerateCard(bool guaranteedRare) public returns (bool) {\n        uint class_percent = rand(1, 100);\n        uint rarity_percent = rand(1, 100);\n        uint8 class;\n        uint8 rarity;\n        Card newCard;\n        if (class_percent < 25) {\n            class = 0;\n        }\n        else if (class_percent < 50) {\n            class = 1;\n        }\n        else if (class_percent < 75) {\n            class = 2;\n        }\n        else {\n            class = 3;\n        }\n        \n        if (guaranteedRare) {\n            if (rarity_percent < 33) {\n                rarity = 0;\n                newCard = new Card(rarity, class, owner);\n                cards.push(newCard);\n            }\n            else {\n                rarity = 1;\n                newCard = new Card(rarity, class, owner);\n                cards.push(newCard);\n            }\n        }\n        \n        if (rarity_percent < 10) {\n            rarity = 0;\n            newCard = new Card(rarity, class, owner);\n            cards.push(newCard);\n        }\n        else if (rarity_percent >= 10 && rarity_percent < 30) {\n            rarity = 1;\n            newCard = new Card(rarity, class, owner);\n            cards.push(newCard);\n        }\n        else if (rarity_percent >= 30 && rarity_percent < 60) {\n            rarity = 2;\n            newCard = new Card(rarity, class, owner);\n            cards.push(newCard);\n            return false;\n        }\n        else {\n            rarity = 3;\n            newCard = new Card(rarity, class, owner);\n            cards.push(newCard);\n            return false;\n        }\n        return true;\n    }\n    \n    constructor() {\n        owner = msg.sender;\n        bool atLeastOneRare = false;\n        for (int i = 0; i < 5; i++) {\n            if (i == 4 && !atLeastOneRare) {\n                atLeastOneRare = true;\n                GenerateCard(true);\n            }\n            else {\n                if (GenerateCard(false))\n                    atLeastOneRare = true;\n            }\n        }\n    }\n    \n}\n",
  "sourcePath": "/Users/albertli/Documents/project-1/contracts/BoosterPack.sol",
  "compiler": {
    "name": "solc",
    "version": "0.4.24+commit.e67f0147.Emscripten.clang"
  },
  "schemaVersion": "2.0.1",
  "updatedAt": "2018-07-17T20:02:24.595Z"
}