{
  "contractName": "CardToken",
  "abi": [
    {
      "constant": true,
      "inputs": [
        {
          "name": "",
          "type": "address"
        }
      ],
      "name": "cardsOwned",
      "outputs": [
        {
          "name": "",
          "type": "uint256"
        }
      ],
      "payable": false,
      "stateMutability": "view",
      "type": "function"
    },
    {
      "constant": true,
      "inputs": [
        {
          "name": "",
          "type": "uint256"
        }
      ],
      "name": "cardOwner",
      "outputs": [
        {
          "name": "",
          "type": "address"
        }
      ],
      "payable": false,
      "stateMutability": "view",
      "type": "function"
    },
    {
      "anonymous": false,
      "inputs": [
        {
          "indexed": false,
          "name": "_owner",
          "type": "address"
        },
        {
          "indexed": false,
          "name": "_cardID",
          "type": "uint256"
        },
        {
          "indexed": false,
          "name": "_class",
          "type": "uint8"
        },
        {
          "indexed": false,
          "name": "_rarity",
          "type": "uint8"
        }
      ],
      "name": "Creation",
      "type": "event"
    },
    {
      "anonymous": false,
      "inputs": [
        {
          "indexed": false,
          "name": "test1",
          "type": "uint8"
        },
        {
          "indexed": false,
          "name": "test2",
          "type": "uint8"
        }
      ],
      "name": "Confirmation",
      "type": "event"
    },
    {
      "anonymous": false,
      "inputs": [
        {
          "indexed": true,
          "name": "_from",
          "type": "address"
        },
        {
          "indexed": true,
          "name": "_to",
          "type": "address"
        },
        {
          "indexed": true,
          "name": "_tokenId",
          "type": "uint256"
        }
      ],
      "name": "Transfer",
      "type": "event"
    },
    {
      "anonymous": false,
      "inputs": [
        {
          "indexed": true,
          "name": "_owner",
          "type": "address"
        },
        {
          "indexed": true,
          "name": "_approved",
          "type": "address"
        },
        {
          "indexed": true,
          "name": "_tokenId",
          "type": "uint256"
        }
      ],
      "name": "Approval",
      "type": "event"
    },
    {
      "anonymous": false,
      "inputs": [
        {
          "indexed": true,
          "name": "_owner",
          "type": "address"
        },
        {
          "indexed": true,
          "name": "_operator",
          "type": "address"
        },
        {
          "indexed": false,
          "name": "_approved",
          "type": "bool"
        }
      ],
      "name": "ApprovalForAll",
      "type": "event"
    },
    {
      "constant": false,
      "inputs": [
        {
          "name": "_class",
          "type": "uint8"
        },
        {
          "name": "_rarity",
          "type": "uint8"
        },
        {
          "name": "_owner",
          "type": "address"
        }
      ],
      "name": "_createCard",
      "outputs": [
        {
          "name": "",
          "type": "uint256"
        }
      ],
      "payable": false,
      "stateMutability": "nonpayable",
      "type": "function"
    },
    {
      "constant": false,
      "inputs": [
        {
          "name": "test1",
          "type": "uint8"
        },
        {
          "name": "test2",
          "type": "uint8"
        }
      ],
      "name": "test",
      "outputs": [],
      "payable": false,
      "stateMutability": "nonpayable",
      "type": "function"
    },
    {
      "constant": true,
      "inputs": [],
      "name": "printYeet",
      "outputs": [
        {
          "name": "",
          "type": "uint256"
        }
      ],
      "payable": false,
      "stateMutability": "view",
      "type": "function"
    },
    {
      "constant": true,
      "inputs": [
        {
          "name": "token_Id",
          "type": "uint256"
        },
        {
          "name": "_owner",
          "type": "address"
        }
      ],
      "name": "getClass",
      "outputs": [
        {
          "name": "",
          "type": "uint8"
        }
      ],
      "payable": false,
      "stateMutability": "view",
      "type": "function"
    },
    {
      "constant": true,
      "inputs": [
        {
          "name": "token_Id",
          "type": "uint256"
        },
        {
          "name": "_owner",
          "type": "address"
        }
      ],
      "name": "getRarity",
      "outputs": [
        {
          "name": "",
          "type": "uint8"
        }
      ],
      "payable": false,
      "stateMutability": "view",
      "type": "function"
    },
    {
      "constant": true,
      "inputs": [
        {
          "name": "_owner",
          "type": "address"
        }
      ],
      "name": "balanceOf",
      "outputs": [
        {
          "name": "",
          "type": "uint256"
        }
      ],
      "payable": false,
      "stateMutability": "view",
      "type": "function"
    },
    {
      "constant": true,
      "inputs": [
        {
          "name": "_tokenId",
          "type": "uint256"
        }
      ],
      "name": "ownerOf",
      "outputs": [
        {
          "name": "",
          "type": "address"
        }
      ],
      "payable": false,
      "stateMutability": "view",
      "type": "function"
    },
    {
      "constant": false,
      "inputs": [
        {
          "name": "_from",
          "type": "address"
        },
        {
          "name": "_to",
          "type": "address"
        },
        {
          "name": "_tokenId",
          "type": "uint256"
        }
      ],
      "name": "safeTransferFrom",
      "outputs": [],
      "payable": true,
      "stateMutability": "payable",
      "type": "function"
    }
  ],
  "bytecode": "0x6080604052600060025534801561001557600080fd5b50610a37806100256000396000f3006080604052600436106100a4576000357c0100000000000000000000000000000000000000000000000000000000900463ffffffff168063386ecf7e146100a957806338d05af41461011a57806342842e0e146101715780635793711d146101d15780636352211e1461020e57806370a082311461027b5780637a1e45df146102d2578063ac89fa6314610339578063df644c9c146103a6578063ff01f8ac146103d1575b600080fd5b3480156100b557600080fd5b50610104600480360381019080803560ff169060200190929190803560ff169060200190929190803573ffffffffffffffffffffffffffffffffffffffff169060200190929190505050610438565b6040518082815260200191505060405180910390f35b34801561012657600080fd5b5061015b600480360381019080803573ffffffffffffffffffffffffffffffffffffffff169060200190929190505050610607565b6040518082815260200191505060405180910390f35b6101cf600480360381019080803573ffffffffffffffffffffffffffffffffffffffff169060200190929190803573ffffffffffffffffffffffffffffffffffffffff1690602001909291908035906020019092919050505061061f565b005b3480156101dd57600080fd5b5061020c600480360381019080803560ff169060200190929190803560ff169060200190929190505050610780565b005b34801561021a57600080fd5b50610239600480360381019080803590602001909291905050506107e1565b604051808273ffffffffffffffffffffffffffffffffffffffff1673ffffffffffffffffffffffffffffffffffffffff16815260200191505060405180910390f35b34801561028757600080fd5b506102bc600480360381019080803573ffffffffffffffffffffffffffffffffffffffff16906020019092919050505061081d565b6040518082815260200191505060405180910390f35b3480156102de57600080fd5b5061031d60048036038101908080359060200190929190803573ffffffffffffffffffffffffffffffffffffffff169060200190929190505050610866565b604051808260ff1660ff16815260200191505060405180910390f35b34801561034557600080fd5b506103646004803603810190808035906020019092919050505061090a565b604051808273ffffffffffffffffffffffffffffffffffffffff1673ffffffffffffffffffffffffffffffffffffffff16815260200191505060405180910390f35b3480156103b257600080fd5b506103bb61093d565b6040518082815260200191505060405180910390f35b3480156103dd57600080fd5b5061041c60048036038101908080359060200190929190803573ffffffffffffffffffffffffffffffffffffffff169060200190929190505050610947565b604051808260ff1660ff16815260200191505060405180910390f35b60006104426109eb565b600060408051908101604052808760ff1681526020018660ff168152509150600160038390806001815401808255809150509060018203906000526020600020016000909192909190915060008201518160000160006101000a81548160ff021916908360ff16021790555060208201518160000160016101000a81548160ff021916908360ff1602179055505050039050600160008573ffffffffffffffffffffffffffffffffffffffff1673ffffffffffffffffffffffffffffffffffffffff168152602001908152602001600020600081548092919060010191905055507f6370ea7da20cc259ffad2755ab88bec7559901828bc7eca438123add61fd1f1d84828888604051808573ffffffffffffffffffffffffffffffffffffffff1673ffffffffffffffffffffffffffffffffffffffff1681526020018481526020018360ff1660ff1681526020018260ff1660ff16815260200194505050505060405180910390a18360008083815260200190815260200160002060006101000a81548173ffffffffffffffffffffffffffffffffffffffff021916908373ffffffffffffffffffffffffffffffffffffffff16021790555080925050509392505050565b60016020528060005260406000206000915090505481565b60008082815260200190815260200160002060009054906101000a900473ffffffffffffffffffffffffffffffffffffffff1673ffffffffffffffffffffffffffffffffffffffff163373ffffffffffffffffffffffffffffffffffffffff1614151561068b57600080fd5b8160008083815260200190815260200160002060006101000a81548173ffffffffffffffffffffffffffffffffffffffff021916908373ffffffffffffffffffffffffffffffffffffffff160217905550600160008373ffffffffffffffffffffffffffffffffffffffff1673ffffffffffffffffffffffffffffffffffffffff1681526020019081526020016000206000815480929190600190039190505550600160008473ffffffffffffffffffffffffffffffffffffffff1673ffffffffffffffffffffffffffffffffffffffff16815260200190815260200160002060008154809291906001019190505550505050565b7f4139bd1b4c0a0a023ea827ab4322d35a7a87b1b87c6848c684fc5cd3711fd50f8282604051808360ff1660ff1681526020018260ff1660ff1681526020019250505060405180910390a16002600081548092919060010191905055505050565b600080600083815260200190815260200160002060009054906101000a900473ffffffffffffffffffffffffffffffffffffffff169050919050565b6000600160008373ffffffffffffffffffffffffffffffffffffffff1673ffffffffffffffffffffffffffffffffffffffff168152602001908152602001600020549050919050565b60008173ffffffffffffffffffffffffffffffffffffffff1660008085815260200190815260200160002060009054906101000a900473ffffffffffffffffffffffffffffffffffffffff1673ffffffffffffffffffffffffffffffffffffffff1614156108ff576003838154811015156108dd57fe5b9060005260206000200160000160009054906101000a900460ff169050610904565b60ff90505b92915050565b60006020528060005260406000206000915054906101000a900473ffffffffffffffffffffffffffffffffffffffff1681565b6000600254905090565b60008173ffffffffffffffffffffffffffffffffffffffff1660008085815260200190815260200160002060009054906101000a900473ffffffffffffffffffffffffffffffffffffffff1673ffffffffffffffffffffffffffffffffffffffff1614156109e0576003838154811015156109be57fe5b9060005260206000200160000160019054906101000a900460ff1690506109e5565b60ff90505b92915050565b6040805190810160405280600060ff168152602001600060ff16815250905600a165627a7a723058202dd7161712ee04dde7cabf5fc34780e345b54750eeb1317a0b3bf1099dbf24e10029",
  "source": "pragma solidity ^0.4.22;\n\n\n// @title ERC-721 Non-Fungible Token Standard\n// @dev See https://github.com/ethereum/EIPs/blob/master/EIPS/eip-721.md\n//  Note: the ERC-165 identifier for this interface is 0x80ac58cd\ninterface ERC721 /* is ERC165 */ {\n    // @dev This emits when ownership of any NFT changes by any mechanism.\n    //  This event emits when NFTs are created (`from` == 0) and destroyed\n    //  (`to` == 0). Exception: during contract creation, any number of NFTs\n    //  may be created and assigned without emitting Transfer. At the time of\n    //  any transfer, the approved address for that NFT (if any) is reset to none.\n    event Transfer(address indexed _from, address indexed _to, uint256 indexed _tokenId);\n\n    // @dev This emits when the approved address for an NFT is changed or\n    //  reaffirmed. The zero address indicates there is no approved address.\n    //  When a Transfer event emits, this also indicates that the approved\n    //  address for that NFT (if any) is reset to none.\n    event Approval(address indexed _owner, address indexed _approved, uint256 indexed _tokenId);\n\n    // @dev This emits when an operator is enabled or disabled for an owner.\n    //  The operator can manage all NFTs of the owner.\n    event ApprovalForAll(address indexed _owner, address indexed _operator, bool _approved);\n\n    // @notice Count all NFTs assigned to an owner\n    // @dev NFTs assigned to the zero address are considered invalid, and this\n    //  function throws for queries about the zero address.\n    // @param _owner An address for whom to query the balance\n    // @return The number of NFTs owned by `_owner`, possibly zero\n    function balanceOf(address _owner) external view returns (uint256);\n\n    // @notice Find the owner of an NFT\n    // @dev NFTs assigned to zero address are considered invalid, and queries\n    //  about them do throw.\n    // @param _tokenId The identifier for an NFT\n    // @return The address of the owner of the NFT\n    function ownerOf(uint256 _tokenId) external view returns (address);\n\n    // @notice Transfers the ownership of an NFT from one address to another address\n    // @dev Throws unless `msg.sender` is the current owner, an authorized\n    //  operator, or the approved address for this NFT. Throws if `_from` is\n    //  not the current owner. Throws if `_to` is the zero address. Throws if\n    //  `_tokenId` is not a valid NFT. When transfer is complete, this function\n    //  checks if `_to` is a smart contract (code size > 0). If so, it calls\n    //  `onERC721Received` on `_to` and throws if the return value is not\n    //  `bytes4(keccak256(\"onERC721Received(address,address,uint256,bytes)\"))`.\n    // @param _from The current owner of the NFT\n    // @param _to The new owner\n    // @param _tokenId The NFT to transfer\n    // @param data Additional data with no specified format, sent in call to `_to`\n    //function safeTransferFrom(address _from, address _to, uint256 _tokenId, bytes data) external payable;\n\n    // @notice Transfers the ownership of an NFT from one address to another address\n    // @dev This works identically to the other function with an extra data parameter,\n    //  except this function just sets data to \"\"\n    // @param _from The current owner of the NFT\n    // @param _to The new owner\n    // @param _tokenId The NFT to transfer\n    function safeTransferFrom(address _from, address _to, uint256 _tokenId) external payable;\n\n    // @notice Transfer ownership of an NFT -- THE CALLER IS RESPONSIBLE\n    //  TO CONFIRM THAT `_to` IS CAPABLE OF RECEIVING NFTS OR ELSE\n    //  THEY MAY BE PERMANENTLY LOST\n    // @dev Throws unless `msg.sender` is the current owner, an authorized\n    //  operator, or the approved address for this NFT. Throws if `_from` is\n    //  not the current owner. Throws if `_to` is the zero address. Throws if\n    //  `_tokenId` is not a valid NFT.\n    // @param _from The current owner of the NFT\n    // @param _to The new owner\n    // @param _tokenId The NFT to transfer\n    // function transferFrom(address _from, address _to, uint256 _tokenId) external payable;\n    // @notice Set or reaffirm the approved address for an NFT\n    // @dev The zero address indicates there is no approved address.\n    // @dev Throws unless `msg.sender` is the current NFT owner, or an authorized\n    //  operator of the current owner.\n    // @param _approved The new approved NFT controller\n    // @param _tokenId The NFT to approve\n    //function approve(address _approved, uint256 _tokenId) external payable;\n\n    // @notice Enable or disable approval for a third party (\"operator\") to manage\n    //  all of `msg.sender`'s assets.\n    // @dev Emits the ApprovalForAll event. The contract MUST allow\n    //  multiple operators per owner.\n    // @param _operator Address to add to the set of authorized operators.\n    // @param _approved True if the operator is approved, false to revoke approval\n    //function setApprovalForAll(address _operator, bool _approved) external;\n\n    // @notice Get the approved address for a single NFT\n    // @dev Throws if `_tokenId` is not a valid NFT\n    // @param _tokenId The NFT to find the approved address for\n    // @return The approved address for this NFT, or the zero address if there is none\n    //function getApproved(uint256 _tokenId) external view returns (address);\n\n    // @notice Query if an address is an authorized operator for another address\n    // @param _owner The address that owns the NFTs\n    // @param _operator The address that acts on behalf of the owner\n    // @return True if `_operator` is an approved operator for `_owner`, false otherwise\n    //function isApprovedForAll(address _owner, address _operator) external view returns (bool);\n}\n\n//interface ERC721TokenReceiver {\n    // @notice Handle the receipt of an NFT\n    // @dev The ERC721 smart contract calls this function on the\n    // recipient after a `transfer`. This function MAY throw to revert and reject the transfer. Return\n    // of other than the magic value MUST result in the transaction being reverted.\n    // @notice The contract address is always the message sender. \n    // @param _operator The address which called `safeTransferFrom` function\n    // @param _from The address which previously owned the token\n    // @param _tokenId The NFT identifier which is being transferred\n    // @param _data Additional data with no specified format\n    // @return `bytes4(keccak256(\"onERC721Received(address,address,uint256,bytes)\"))`\n    // unless throwing\n    //function onERC721Received(address _operator, address _from, uint256 _tokenId, bytes _data) external returns(bytes4);\n //}\n\ncontract CardToken is ERC721 {\n    mapping (uint256 => address) public cardOwner;\n    mapping (address => uint256) public cardsOwned;\n    // mapping (uint256 => uint8) public Class;\n    // mapping (uint256 => uint8) public Rarity;\n    uint256 currentTests = 0;\n\n    struct Card {\n        uint8 Class;\n        uint8 Rarity;\n    }\n\n    Card[] cards;\n\n    event Creation(address _owner, uint256 _cardID, uint8 _class, uint8 _rarity);\n\n    event Confirmation(uint8 test1, uint8 test2);\n\n    function _transfer(address _from, address _to, uint256 token_Id) internal {\n        cardsOwned[_to]++;\n        cardsOwned[_from]--;\n        emit Transfer(_from, _to, token_Id);\n    }\n\n    function _createCard(uint8 _class, uint8 _rarity, address _owner) public returns (uint256) {\n        Card memory _card = Card({\n            Class: _class,\n            Rarity: _rarity\n        });\n        uint256 newCardID = cards.push(_card) - 1;\n        cardsOwned[_owner]++;\n        emit Creation(_owner, newCardID, _class, _rarity);\n        cardOwner[newCardID] = _owner;\n        return newCardID;\n    }\n\n    function test(uint8 test1, uint8 test2) public {\n        emit Confirmation(test1, test2);\n        currentTests++;\n    }\n    \n    //event Yeet(int val);\n\n\n    function printYeet() public view returns (uint256) {\n        //emit Yeet(1337);\n        return currentTests;\n    }\n\n    function getClass(uint256 token_Id, address _owner) public view returns (uint8) {\n        if (cardOwner[token_Id] == _owner) {\n            return cards[token_Id].Class;\n        }\n        return 255;\n    }\n\n    function getRarity(uint256 token_Id, address _owner) public view returns (uint8) {\n        if (cardOwner[token_Id] == _owner) {\n            return cards[token_Id].Rarity;\n        }\n        return 255;\n    }\n\n\n    function balanceOf(address _owner) external view returns (uint256) {\n        return cardsOwned[_owner];\n    }\n\n    function ownerOf(uint256 _tokenId) external view returns (address) {\n        return cardOwner[_tokenId];\n    }\n\n    function safeTransferFrom(address _from, address _to, uint256 _tokenId) external payable {\n        if (msg.sender != cardOwner[_tokenId])\n            revert();\n        else {\n            cardOwner[_tokenId] = _to;\n            cardsOwned[_to]--;\n            cardsOwned[_from]++;\n        }\n    }\n\n\n}\n          \n\n",
  "sourcePath": "/Users/albertli/Documents/project-1/contracts/CardToken.sol",
  "compiler": {
    "name": "solc",
    "version": "0.4.24+commit.e67f0147.Emscripten.clang"
  },
  "schemaVersion": "2.0.1",
  "updatedAt": "2018-07-29T23:57:22.857Z"
}