{
  "contractName": "MappingUser",
  "abi": [
    {
      "constant": false,
      "inputs": [],
      "name": "f",
      "outputs": [
        {
          "name": "",
          "type": "uint256"
        }
      ],
      "payable": false,
      "stateMutability": "nonpayable",
      "type": "function"
    }
  ],
  "bytecode": "0x608060405234801561001057600080fd5b5061039e806100206000396000f300608060405260043610610041576000357c0100000000000000000000000000000000000000000000000000000000900463ffffffff16806326121ff014610046575b600080fd5b34801561005257600080fd5b5061005b610071565b6040518082815260200191505060405180910390f35b60008061007c6101e9565b604051809103906000f080158015610098573d6000803e3d6000fd5b5090508073ffffffffffffffffffffffffffffffffffffffff166361e035f4603260016040518363ffffffff167c0100000000000000000000000000000000000000000000000000000000028152600401808360ff1681526020018260ff16815260200192505050600060405180830381600087803b15801561011a57600080fd5b505af115801561012e573d6000803e3d6000fd5b505050508073ffffffffffffffffffffffffffffffffffffffff1663da19eae060016040518263ffffffff167c0100000000000000000000000000000000000000000000000000000000028152600401808260ff168152602001915050602060405180830381600087803b1580156101a557600080fd5b505af11580156101b9573d6000803e3d6000fd5b505050506040513d60208110156101cf57600080fd5b810190808051906020019092919050505060ff1691505090565b604051610179806101fa833901905600608060405234801561001057600080fd5b50610159806100206000396000f30060806040526004361061004c576000357c0100000000000000000000000000000000000000000000000000000000900463ffffffff16806361e035f414610051578063da19eae01461008e575b600080fd5b34801561005d57600080fd5b5061008c600480360381019080803560ff169060200190929190803560ff1690602001909291905050506100d8565b005b34801561009a57600080fd5b506100bc600480360381019080803560ff16906020019092919050505061010d565b604051808260ff1660ff16815260200191505060405180910390f35b816000808360ff1660ff16815260200190815260200160002060006101000a81548160ff021916908360ff1602179055505050565b60006020528060005260406000206000915054906101000a900460ff16815600a165627a7a72305820bfdeafb50d86b56adc106f6c864cc1777fa8fdd85a0c9923b9966d233a11cf4f0029a165627a7a7230582075a8c98fd75e77593adcbfd856733a861cb3c12a269047cb4496664da02ccd200029",
  "source": "pragma solidity ^0.4.22;\n\ncontract MappingExample {\n    mapping(uint8 => uint8) public balances;\n\n    function update(uint8 newBalance, uint8 key) public {\n        balances[key] = newBalance;\n    }\n}\n\ncontract MappingUser {\n    function f() public returns (uint) {\n        MappingExample m = new MappingExample();\n        m.update(50, 1);\n        return m.balances(1);\n    }\n}",
  "sourcePath": "/Users/albertli/Documents/project-1/contracts/MappingUser.sol",
  "compiler": {
    "name": "solc",
    "version": "0.4.24+commit.e67f0147.Emscripten.clang"
  },
  "schemaVersion": "2.0.1",
  "updatedAt": "2018-07-23T04:40:34.728Z"
}