{
  "contractName": "MappingExample",
  "abi": [
    {
      "constant": true,
      "inputs": [
        {
          "name": "",
          "type": "uint8"
        }
      ],
      "name": "balances",
      "outputs": [
        {
          "name": "",
          "type": "uint8"
        }
      ],
      "payable": false,
      "stateMutability": "view",
      "type": "function"
    },
    {
      "constant": false,
      "inputs": [
        {
          "name": "newBalance",
          "type": "uint8"
        },
        {
          "name": "key",
          "type": "uint8"
        }
      ],
      "name": "update",
      "outputs": [],
      "payable": false,
      "stateMutability": "nonpayable",
      "type": "function"
    }
  ],
  "bytecode": "0x608060405234801561001057600080fd5b50610159806100206000396000f30060806040526004361061004c576000357c0100000000000000000000000000000000000000000000000000000000900463ffffffff16806361e035f414610051578063da19eae01461008e575b600080fd5b34801561005d57600080fd5b5061008c600480360381019080803560ff169060200190929190803560ff1690602001909291905050506100d8565b005b34801561009a57600080fd5b506100bc600480360381019080803560ff16906020019092919050505061010d565b604051808260ff1660ff16815260200191505060405180910390f35b816000808360ff1660ff16815260200190815260200160002060006101000a81548160ff021916908360ff1602179055505050565b60006020528060005260406000206000915054906101000a900460ff16815600a165627a7a72305820bfdeafb50d86b56adc106f6c864cc1777fa8fdd85a0c9923b9966d233a11cf4f0029",
  "source": "pragma solidity ^0.4.22;\n\ncontract MappingExample {\n    mapping(uint8 => uint8) public balances;\n\n    function update(uint8 newBalance, uint8 key) public {\n        balances[key] = newBalance;\n    }\n}\n\ncontract MappingUser {\n    function f() public returns (uint) {\n        MappingExample m = new MappingExample();\n        m.update(50, 1);\n        return m.balances(1);\n    }\n}",
  "sourcePath": "/Users/albertli/Documents/project-1/contracts/MappingUser.sol",
  "compiler": {
    "name": "solc",
    "version": "0.4.24+commit.e67f0147.Emscripten.clang"
  },
  "schemaVersion": "2.0.1",
  "updatedAt": "2018-07-23T04:39:23.207Z"
}