{
  "contractName": "MappingUser",
  "abi": [
    {
      "constant": false,
      "inputs": [],
      "name": "f",
      "outputs": [
        {
          "name": "",
          "type": "uint256"
        }
      ],
      "payable": false,
      "stateMutability": "nonpayable",
      "type": "function"
    }
  ],
  "bytecode": "0x608060405234801561001057600080fd5b506103ba806100206000396000f300608060405260043610610041576000357c0100000000000000000000000000000000000000000000000000000000900463ffffffff16806326121ff014610046575b600080fd5b34801561005257600080fd5b5061005b610071565b6040518082815260200191505060405180910390f35b60008061007c6101ff565b604051809103906000f080158015610098573d6000803e3d6000fd5b5090508073ffffffffffffffffffffffffffffffffffffffff166382ab890a60646040518263ffffffff167c010000000000000000000000000000000000000000000000000000000002815260040180828152602001915050600060405180830381600087803b15801561010b57600080fd5b505af115801561011f573d6000803e3d6000fd5b505050508073ffffffffffffffffffffffffffffffffffffffff166327e235e3306040518263ffffffff167c0100000000000000000000000000000000000000000000000000000000028152600401808273ffffffffffffffffffffffffffffffffffffffff1673ffffffffffffffffffffffffffffffffffffffff168152602001915050602060405180830381600087803b1580156101be57600080fd5b505af11580156101d2573d6000803e3d6000fd5b505050506040513d60208110156101e857600080fd5b810190808051906020019092919050505091505090565b60405161017f80610210833901905600608060405234801561001057600080fd5b5061015f806100206000396000f30060806040526004361061004c576000357c0100000000000000000000000000000000000000000000000000000000900463ffffffff16806327e235e31461005157806382ab890a146100a8575b600080fd5b34801561005d57600080fd5b50610092600480360381019080803573ffffffffffffffffffffffffffffffffffffffff1690602001909291905050506100d5565b6040518082815260200191505060405180910390f35b3480156100b457600080fd5b506100d3600480360381019080803590602001909291905050506100ed565b005b60006020528060005260406000206000915090505481565b806000803373ffffffffffffffffffffffffffffffffffffffff1673ffffffffffffffffffffffffffffffffffffffff16815260200190815260200160002081905550505600a165627a7a72305820e9ec738d5e7ca1f04f59ba38c8b98cfcbd34d221bbcdf07a37d4acc27d926df70029a165627a7a723058206398701a2995a47757633593c59583eb4bddbc60907bc9dfc7e71a6fdb9ef1e20029",
  "source": "pragma solidity ^0.4.22;\n\ncontract MappingExample {\n    mapping(address => uint) public balances;\n\n    function update(uint newBalance) public {\n        balances[msg.sender] = newBalance;\n    }\n}\n\ncontract MappingUser {\n    function f() public returns (uint) {\n        MappingExample m = new MappingExample();\n        m.update(100);\n        return m.balances(this);\n    }\n}",
  "sourcePath": "/Users/albertli/Documents/project-1/contracts/MappingUser.sol",
  "compiler": {
    "name": "solc",
    "version": "0.4.24+commit.e67f0147.Emscripten.clang"
  },
  "schemaVersion": "2.0.1",
  "updatedAt": "2018-07-29T23:56:52.106Z"
}